:100000000C945D030C9485030C9485030C94850378
:100010000C9485030C9485030C9485030C94850340
:100020000C9485030C9485030C9485030C94850330
:100030000C9485030C949F0C0C9485030C948503FD
:100040000C94062A0C9485030C94A92B0C94ED2B8C
:100050000C9485030C9485030C9485030C94850300
:100060000C9485030C94850300000000003E5B4F58
:100070005B3E3E6B4F6B3E1C3E7C3E1C183C7E3C08
:10008000181C577D571C1C5E7F5E1C00183C180016
:10009000FFE7C3E7FF0018241800FFE7DBE7FF30A6
:1000A000483A060E2629792926407F050507407F14
:1000B00005253F5A3CE73C5A7F3E1C1C08081C1C87
:1000C0003E7F14227F22145F5F005F5F06097F017D
:1000D0007F006689956A606060606094A2FFA29468
:1000E00008047E040810207E201008082A1C080836
:1000F0001C2A08081E101010100C1E0C1E0C303884
:100100003E3830060E3E0E06000000000000005F84
:1001100000000007000700147F147F14242A7F2AA0
:100120001223130864623649562050000807030062
:10013000001C2241000041221C002A1C7F1C2A08AE
:10014000083E080800807030000808080808000011
:1001500060600020100804023E5149453E00427F85
:10016000400072494949462141494D331814127FD4
:100170001027454545393C4A494931412111090774
:100180003649494936464949291E000014000000F5
:1001900040340000000814224114141414140041C7
:1001A00022140802015909063E415D594E7C121184
:1001B000127C7F494949363E414141227F414141BC
:1001C0003E7F494949417F090909013E4141517337
:1001D0007F0808087F00417F41002040413F017FA8
:1001E000081422417F404040407F021C027F7F0470
:1001F00008107F3E4141413E7F090909063E4151B9
:10020000215E7F09192946264949493203017F01A8
:10021000033F4040403F1F2040201F3F4038403FA9
:10022000631408146303047804036159494D4300BF
:100230007F4141410204081020004141417F0402F6
:10024000010204404040404000030708002054548D
:1002500078407F284444383844444428384444286B
:100260007F385454541800087E090218A4A49C78BE
:100270007F0804047800447D40002040403D007F1A
:100280001028440000417F40007C047804787C08FA
:100290000404783844444438FC18242418182424CE
:1002A00018FC7C08040408485454542404043F44B3
:1002B000243C4040207C1C2040201C3C4030403CE2
:1002C00044281028444C9090907C4464544C440042
:1002D00008364100000077000000413608000201A6
:1002E0000204023C2623263C1EA1A161123A404092
:1002F000207A385454555921555579412154547810
:1003000041215554784020545579400C1E527212A8
:100310003955555559395454545939555454580030
:1003200000457C410002457D420001457C40F029AA
:100330002429F0F0282528F07C54554500205454F9
:100340007C547C0A097F493249494932324848483D
:1003500032324A4848303A4141217A3A4240207884
:10036000009DA0A07D39444444393D4040403D3C7F
:1003700024FF2424487E4943662B2FFC2F2BFF09A2
:1003800029F620C0887E0903205454794100004496
:100390007D413048484A32384040227A007A0A0A81
:1003A000727D0D19317D2629292F282629292926F4
:1003B00030484D4020380808080808080808382F39
:1003C00010C8ACBA2F102834FA00007B00000814C3
:1003D0002A142222142A1408AA005500AAAA55AAEF
:1003E00055AA000000FF00101010FF00141414FFA5
:1003F000001010FF00FF1010F010F0141414FC0097
:100400001414F700FF0000FF00FF1414F404FC14A0
:100410001417101F10101F101F1414141F00101099
:1004200010F0000000001F101010101F101010100E
:10043000F010000000FF101010101010101010FF2E
:1004400010000000FF140000FF00FF00001F101745
:100450000000FC04F414141710171414F404F4002E
:1004600000FF00F714141414141414F700F71414F4
:1004700014171410101F101F141414F4141010F07B
:1004800010F000001F101F0000001F14000000FCEF
:10049000140000F010F01010FF10FF141414FF14DB
:1004A0001010101F00000000F010FFFFFFFFFFF012
:1004B000F0F0F0F0FFFFFF0000000000FFFF0F0F63
:1004C0000F0F0F38444438447C2A2A3E147E02021F
:1004D0000606027E027E0263554941633844443C6D
:1004E00004407E201E2006027E020299A5E7A599FF
:1004F0001C2A492A1C4C7201724C304A4D4D303036
:1005000048784830BC625A463D3E494949007E0120
:1005100001017E2A2A2A2A2A44445F444440514A3F
:10052000444040444A51400000FF0103E080FF0086
:100530000008086B6B083612362436060F090F06C2
:10054000000018180000001010003040FF010100EA
:100550001F01011E00191D1712003C3C3C3C00000D
:100560000000000F0180961180FFB103012C2DB215
:1005700003012C2DB306012C2D012C2DB40107C035
:1005800003A20284C101C5C2020A00C3028A2AC4AE
:10059000028AEEC5010E20003601C83A0105022A82
:1005A00004000200812B04000100A0022A040000C4
:1005B000007F2B040000009F04E010021C0712378C
:1005C00032292D29252B3900010310E110031D07C5
:1005D000062E2C292D2E2E373F0000021013800AE4
:1005E000298064120180321180FF3A81050AB183AB
:1005F0000006030A360108B6021502B40100C082E3
:1006000002700AC10105C2020102C5823C380AFC1F
:10061000021115E01009160920211B131917151EC8
:100620002B0405020EE1900B14081E221D181E1B40
:100630001A242B0606020F0A2A04000200812B044A
:100640000002008113800A2980FF7C3C3E5E2B3D26
:100650003F2F5B5D3B2C2A225C0000000000240041
:1006600027002A0000000000250028002B000000C1
:1006700000002300260029000404040404040404E8
:10068000020202020202030303030303010204083D
:1006900010204080010204081020010204081020EC
:1006A0000000000700020100000304060000000033
:1006B00000000000B1040318512D11241FBECFEF1C
:1006C000D8E0DEBFCDBF11E0A0E0B1E0E8E3FDE59A
:1006D00002C005900D92A037B107D9F716E0A0E748
:1006E000B1E001C01D92AC35B107E1F716E0CAEBED
:1006F000D6E004C02297FE010E94962EC43BD1078B
:10070000C9F70E94A12D0C949A2E0C940000CF934F
:10071000DF93BC018230910510F462E070E0A0919B
:100720005A06B0915B06ED01E0E0F0E040E050E0F9
:1007300021C0888199818617970769F48A819B81F6
:10074000309719F09383828304C090935B06809363
:100750005A06FE0134C06817790738F4411551056F
:1007600019F08417950708F4AC01FE018A819B817A
:100770009C01E9012097E9F641155105A9F1CA014B
:10078000861B970B049708F4BA01E0E0F0E02AC05A
:100790008D919C91119784179507F9F4641775074B
:1007A00081F412968D919C911397309719F0938351
:1007B000828304C090935B0680935A06FD013296B3
:1007C0004CC0CA01861B970BFD01E80FF91F61930E
:1007D000719302978D939C9340C0FD018281938118
:1007E0009C01D9011097A1F6809158069091590665
:1007F000892B41F480912201909123019093590615
:1008000080935806409124015091250141155105CE
:1008100041F44DB75EB78091200190912101481BB2
:10082000590B2091580630915906CA01821B930B2F
:100830008617970780F0AB014E5F5F4F84179507CF
:1008400050F0420F531F5093590640935806F90138
:100850006193719302C0E0E0F0E0CF01DF91CF91AE
:100860000895CF93DF93009709F450C0EC012297CD
:100870001B821A82A0915A06B0915B06109709F16B
:1008800040E050E0AC17BD0708F1BB83AA83FE012E
:1008900021913191E20FF31FAE17BF0779F48D91CB
:1008A0009C911197280F391F2E5F3F4F3983288362
:1008B00012968D919C9113979B838A8341155105C4
:1008C00071F4D0935B06C0935A0620C012968D91A6
:1008D0009C911397AD01009711F0DC01D3CFFA0181
:1008E000D383C28321913191E20FF31FCE17DF072B
:1008F00069F488819981280F391F2E5F3F4FFA01D3
:10090000318320838A819B8193838283DF91CF917E
:100910000895FB01DC0104C08D910190801921F440
:1009200041505040C8F7881B990B0895FC018191F4
:10093000861721F08823D9F7992708953197CF0199
:100940000895FB01DC014150504048F001900D92A8
:100950000020C9F701C01D9241505040E0F70895B2
:1009600008958AEA91E06AE048E020E00E943A12A5
:100970000895EF92FF920F931F93DF93CF9300D0D0
:1009800000D0CDB7DEB78C017E010894E11CF11CCC
:100990000E9453178983C8010E945317F70181836E
:1009A000C8010E945317F7018283C8010E945317A0
:1009B00069817A81982F8B810F900F900F900F9003
:1009C000CF91DF911F910F91FF90EF9008950F93BA
:1009D0001F93DF93CF9300D0CDB7DEB78C010E9479
:1009E00053178983C8010E945317982F89810F904C
:1009F0000F90CF91DF911F910F9108952F923F9209
:100A00004F925F926F927F928F929F92AF92BF921E
:100A1000CF92DF92EF92FF920F931F93DF93CF93CA
:100A2000CDB7DEB7C857D1400FB6F894DEBF0FBEC2
:100A3000CDBF7C01C958DE4F6883C757D140C85825
:100A4000DE4F4883C857D140CE0101960E94AD16B3
:100A5000C958DE4F3881C757D140232F30E0CB58DB
:100A6000DE4F39832883C557D1408AEA91E00E943E
:100A70003212CB58DE4FA881B981C557D140A81793
:100A8000B9070CF0D1C3C858DE4FF881C857D14020
:100A9000EF2FF0E0CD58DE4FF983E883C357D14004
:100AA0008AEA91E00E943612CD58DE4F28813981C2
:100AB000C357D140281739070CF0B6C3D3C38AEA0D
:100AC00091E060E071E00E94162E8AEA91E0B701A1
:100AD0000E94162E8AEA91E061E171E00E94192ECF
:100AE0007894A2C38B819C819AAF89AF8D819E81BE
:100AF000AF81B8858BAF9CAFADAFBEAF89859A850E
:100B0000AB85BC85FE01FF9680839183A283B3836E
:100B10008BE491E098AF8FABDE01AD5BBF4FFE0180
:100B20003D968DE001900D928150E1F78A8D9B8D6D
:100B3000FE01E05BFF4F918380838E01095C1F4FB4
:100B4000C8010E94E7047C01C8010E94C01632E47B
:100B5000E3163DE4F30609F059C3FE01EE5AFF4FD8
:100B60008B819C81938382838D819E81AF81B885A7
:100B700084839583A683B78389859A85AB85BC8555
:100B800080879187A287B3878BE491E091838083EC
:100B90003C96DE011D968DE00D9001928150E1F7AB
:100BA0008E010E5A1F4F8A8D9B8DD8015A969C93A9
:100BB0008E935997C8010E94B904C8010E94C016BB
:100BC000FE01E359FF4F8B819C81938382838D814A
:100BD0009E81AF81B88584839583A683B7838985F9
:100BE0009A85AB85BC8580879187A287B3878BE484
:100BF00091E0918380833C96DE011D968DE00D90FF
:100C000001928150E1F78E0103591F4F8A8D9B8D10
:100C1000F801928F818FC8010E94B904C8010E9417
:100C2000C016FE01E857FF4F8B819C81938382831E
:100C30008D819E81AF81B88584839583A683B78398
:100C400089859A85AB85BC8580879187A287B38784
:100C50008BE491E0918380833C96DE011D968DE0CC
:100C60000D9001928150E1F78E0108571F4F8A8D38
:100C70009B8DD8015A969C938E935997C8010E94D8
:100C8000B904C159DE4F688379838A839B83CF5629
:100C9000D140C8010E94C016FE01ED55FF4F8B8167
:100CA0009C81938382838D819E81AF81B88584836B
:100CB0009583A683B78389859A85AB85BC85808714
:100CC0009187A287B3878BE491E0918380833C96E0
:100CD000DE011D968DE00D9001928150E1F78E01AD
:100CE0000D551F4F8A8D9B8DF801928F818FC80102
:100CF0000E94B904C8010E94C016FE01E254FF4FD1
:100D00008B819C81938382838D819E81AF81B88505
:100D100084839583A683B78389859A85AB85BC85B3
:100D200080879187A287B3878BE491E0918380834A
:100D30003C96DE011D968DE00D9001928150E1F709
:100D40008E0102541F4F8A8D9B8DD8015A969C9319
:100D50008E935997C8010E94B9042B013C01C80128
:100D60000E94C016FE01E752FF4F8B819C81938346
:100D700082838D819E81AF81B88584839583A6838C
:100D8000B78389859A85AB85BC8580879187A28743
:100D9000B3878BE491E0918380833C96DE011D96BE
:100DA0008DE00D9001928150E1F78E0107521F4FA7
:100DB0008A8D9B8DF801928F818FC8010E94B904A2
:100DC0004B015C01C8010E94C016FE01EC50FF4FB0
:100DD0008B819C81938382838D819E81AF81B88535
:100DE00084839583A683B78389859A85AB85BC85E3
:100DF00080879187A287B3878BE491E0918380837A
:100E00003C96DE011D968DE00D9001928150E1F738
:100E10008E010C501F4F8A8D9B8DD8015A969C9342
:100E20008E935997C8010E94E7047C01C8010E9473
:100E3000C016B1E0EB16F10409F0E8C1FE01E15F74
:100E4000FE4F8B819C81938382838D819E81AF81B4
:100E5000B88584839583A683B78389859A85AB8576
:100E6000BC8580879187A287B3878BE491E09183CB
:100E700080833C96DE011D968DE00D90019281509D
:100E8000E1F78E01015F1E4F8A8D9B8DF801928FD5
:100E9000818FC8010E94E704F82EC8010E94C01685
:100EA000F8E1FF1609F0B2C1FE01E65DFE4F8B814D
:100EB0009C81938382838D819E81AF81B885848359
:100EC0009583A683B78389859A85AB85BC85808702
:100ED0009187A287B3878BE491E0918380833C96CE
:100EE000DE011D968DE00D9001928150E1F78E019B
:100EF000065D1E4F8A8D9B8DD8015A969C938E93CA
:100F00005997C8010E94B9046B017C01C8010E9475
:100F1000C016C114D104E104F10409F077C18201C3
:100F20007401789492012F5F3F4FC901880F991F78
:100F3000820F931F8C7F1C01442437FC4094542C57
:100F400097FC07C0B1E0C359DE4FB883CD56D140FE
:100F500009C0F094E194F108F394C359DE4F18826C
:100F6000CD56D1408AEA91E00E943212CB58DE4F32
:100F700028813981C557D140200F311F821793072F
:100F80003CF0C559DE4F19830883CB56D14012C0BF
:100F90008AEA91E00E943212CB58DE4FE881F98153
:100FA000C557D1408E1B9F0BC559DE4F998388834F
:100FB000CB56D1408AEA91E00E943612CD58DE4FDE
:100FC00028813981C357D1402E0D3F1D82179307C9
:100FD0003CF0C759DE4FF982E882C956D14012C0B1
:100FE0008AEA91E00E943612CD58DE4F288139817D
:100FF000C357D140821B930BC759DE4F9983888317
:10100000C956D140C958DE4F2881C757D140215019
:10101000C559DE4F3881CB56D140230FC858DE4F1B
:101020000881C857D1400150C759DE4F8881C95641
:10103000D140080F8AEA91E0C958DE4F6881C7574E
:10104000D140C858DE4F4881C857D1400E94DA12BB
:1010500088279927DC0182199309A409B509CD597C
:10106000DE4F88839983AA83BB83C356D1400894FB
:10107000E108F108B701882777FD8095982FA20134
:1010800091010E942C2E5B016C01C159DE4F8881B9
:101090009981AA81BB81CF56D140A80EB91ECA1E24
:1010A000DB1E3C014D019EE1C259DE4F9883CE56B6
:1010B000D140C959DE4F19821882C756D14094C019
:1010C000C359DE4FA881CD56D140AA2319F086011D
:1010D000750102C084017301CE0101960E940217BE
:1010E0006E157F058007910761F0CE010196B8016A
:1010F000A7010E943417BEE1C259DE4FB883CE5615
:10110000D14000E010E049C0C259DE4FE881CE5620
:10111000D140EE3170F0CE010196BE016B5B7E4F87
:101120004EE150E00E944617C259DE4F1882CE565B
:10113000D140E5E4F1E0EC0FFD1FC259DE4F2881FC
:10114000CE56D140E20FF11D2081C259DE4F988169
:10115000CE56D1409F5F892F8F5F382F3F5FC25996
:10116000DE4F3883CE56D140E5E4F1E0EC0FFD1FB1
:10117000E80FF11DA5E4B1E0AC0FBD1FA90FB11D33
:101180008AEA91E060814C910E94C314BC018AEA12
:1011900091E00E941E130F5F1F4FC559DE4F8881DB
:1011A0009981CB56D140081719070CF4ADCFC95916
:1011B000DE4FA881B981C756D1401196C959DE4F7B
:1011C000B983A883C756D140CD59DE4F8881998114
:1011D000AA81BB81C356D140A80EB91ECA1EDB1E10
:1011E000620C731C841C951CC959DE4FA881B981FF
:1011F000C756D140C759DE4FE881F981C956D14061
:10120000AE17BF070CF45CCF11E001C010E0CE01B7
:1012100001960E942217112331F48AEA91E063E1DA
:1012200071E00E94192E7894CE0101960E94C0169A
:10123000C858DE4F0FB6F894DEBF0FBECDBFCF91BA
:10124000DF911F910F91FF90EF90DF90CF90BF90B3
:10125000AF909F908F907F906F905F904F903F9056
:101260002F900895F894CE014C9666ED71E0A70199
:1012700021E00E9443198E8D9F8D9C838B8388A1D2
:1012800099A1AAA1BBA18D839E83AF83B8878CA1AE
:101290009DA1AEA1BFA189879A87AB87BC87DE01DC
:1012A0001D96FE01B8968DE001900D928150E1F7F8
:1012B0008DA99EA99B8F8A8FCE0101960E9415173A
:1012C000182FCE014C960E94C016112309F4F7CBBB
:1012D00009CCDF93CF93CDB7DEB72D970FB6F89437
:1012E000DEBF0FBECDBF83E0AE01425050409E0135
:1012F00021503040A82FBB27A7FDB095FD01EA582B
:10130000FE4F9081992311F483E607C0FA01EA0F9A
:10131000FB1F9083A20FB31F1C928F5F803154F389
:1013200080917001813041F4CE0101966091770186
:10133000409178010E94FE042D960FB6F894DEBF0E
:101340000FBECDBFCF91DF910895609177016430DA
:1013500030F4609327018AEA91E00E94DC1408953A
:101360000F931F936091770140917801209179014B
:1013700000912801109129018AEA91E070E050E083
:1013800030E00E94A50F1F910F9108950F931F93B6
:1013900060917701409178012091790100912801B5
:1013A000109129018AEA91E070E050E030E00E945B
:1013B000940D1F910F910895EF92FF920F931F9339
:1013C0006091770170E04091780150E020917901BF
:1013D00030E0261B370B00917A0110E0041B150B3F
:1013E000E0902801F09029018AEA91E00E944B14D4
:1013F0001F910F91FF90EF900895EF92FF920F933E
:101400001F936091770170E04091780150E0209146
:10141000790130E0261B370B00917A0110E0041BA4
:10142000150BE0902801F09029018AEA91E00E94D2
:1014300085101F910F91FF90EF900895EF92FF920A
:101440000F931F936091770140917801209179016A
:1014500000917A01E0902801F09029018AEA91E058
:1014600070E050E030E010E00E94D90F1F910F9122
:10147000FF90EF90089550912701513019F080E0CE
:10148000533009F481E06091770140917801282F71
:1014900030E090E0603A08F491E0842F8095881F56
:1014A0008827881F9823892F90E028233923232B0E
:1014B000B9F4552319F080E0523009F481E0282F67
:1014C00030E0862F8095881F8827881F90E0403A5B
:1014D00008F491E0892390E028233923232B51F04D
:1014E00060937101409372018AEA91E070E050E0EC
:1014F0000E941D1208952091260130E0809177010D
:1015000090E0AC01249FC001259F900D349F900D69
:101510001124BC01660F771F680F791F660F771FB4
:10152000609371018091780190E0289FA001299F2C
:10153000500D389F500D112473E0440F551F7A95BC
:10154000E1F7409372018AEA91E070E050E00E9476
:101550001D12089510927101409172018AEA91E082
:1015600060E070E050E00E941D12089580917701C4
:10157000883078F58330D9F0843028F4813089F0D0
:10158000823090F409C08530C1F0853098F0863003
:10159000B9F08730F1F417C0109275011092740100
:1015A00018C08FE190E011C080E098EF0EC080EE8F
:1015B00097E00BC08FEF97E008C08FE198EF05C070
:1015C00080EE9FEF02C08FEF9FEF909375018093A5
:1015D000740160912801709129014091740150912A
:1015E00075018AEA91E00E9429120895809177019D
:1015F000883078F58330D9F0843028F4813089F050
:10160000823090F409C08530C1F0853098F0863082
:10161000B9F08730F1F417C0109229011092280117
:1016200018C08FE190E011C080E098EF0EC080EE0E
:1016300097E00BC08FEF97E008C08FE198EF05C0EF
:1016400080EE9FEF02C08FEF9FEF90932901809370
:1016500028016091280170912901409174015091F5
:1016600075018AEA91E00E9429120895609177013C
:10167000862F8150833030F4609326018AEA91E00E
:101680000E94231208950F931F930AEA11E06091BC
:10169000740170917501C8010E943014109271019B
:1016A00010927201C80160E070E040E050E00E94DA
:1016B0001D121F910F9108950F931F930AEA11E0D5
:1016C000C80160E00E942F12C80160E070E00E9433
:1016D0003014C80162E00E942312609171014091B0
:1016E0007201C80170E050E00E941D126091280153
:1016F000709129014091740150917501C8010E94B7
:1017000029121F910F910895DF92EF92FF920F938C
:101710001F93CF93DF9314E6D12EB6E0FB2EEE2479
:10172000E3940AEF1FEFFCC089E396E00E94DF2CF0
:10173000BC0180917301882381F56B31710519F427
:10174000E09273019DC06D307105A1F4109271019A
:1017500040912601440F440F440F80917201480FBD
:10176000409372018AEA91E060E070E050E00E94EC
:101770001D1286C06A30710509F482C08AEA91E0C0
:101780000E94DA2D809126018F9DC00111242091A5
:101790007101280F2093710173C0A0919E01B09137
:1017A0009F016F3F710509F062C0AA58BE4F1C929D
:1017B000809176018730A9F1883070F4833029F167
:1017C000843028F48130D9F08230E0F415C08530BF
:1017D00011F1863018F51CC08B3079F18C3028F46B
:1017E000893029F18A3030F51FC08D3061F18D309C
:1017F00038F18E3099F52AC00E94430B2FC00E9409
:10180000F60A2CC00E94B60A29C00E94A50926C06B
:101810000E94360B23C00E94AA0A20C00E947B0AA5
:101820001DC00E943B0A1AC00E941E0A17C00E94D7
:10183000FD0914C00E94DC0911C00E94C6090EC037
:101840000E94B0090BC00E94690908C0809177010D
:1018500080932A01843610F0D0922A0110927601EA
:1018600010929F0110929E011092730109C0FD0118
:10187000EA58FE4F60831196B0939F01A0939E019A
:10188000E0912701E13019F090E0E33009F491E0B4
:1018900080912601682F70E0609FE001619FD00D6C
:1018A000709FD00D112480917101A82FB0E0292FD5
:1018B00030E040E050E0CE0181569F4F8A179B07F1
:1018C00014F441E050E024233523232BB1F4EE231C
:1018D00019F080E0E23009F481E0282F30E040E0A8
:1018E00050E0CE0181589F4F8A179B0714F441E0C6
:1018F00050E024233523232B99F010927101A3E0AB
:10190000660F771FAA95E1F740917201460F409349
:1019100072018AEA91E060E070E050E00E941D12DE
:1019200089E396E00E94AD2C892B09F0FDCEDF9172
:10193000CF911F910F91FF90EF90DF9008951F922C
:101940000F920FB60F921124EF92FF920F931F93F5
:101950002F933F934F935F936F937F938F939F93B7
:10196000AF93BF93EF93FF938091A8019091A9014A
:1019700090938500809384000E945C2A6093A0016C
:101980007093A1018093A2019093A30120912A0159
:1019900030E040E050E005E0220F331F441F551FA8
:1019A0000A95D1F7E090A401F090A5010091A6015D
:1019B0001091A7012E0D3F1D401F511F6217730785
:1019C0008407950758F187E060E00E94552B8091CD
:1019D000A4019091A501A091A601B091A701805802
:1019E000934FAF4FBF4F2091A0013091A101409183
:1019F000A2015091A301281739074A075B0770F02D
:101A000087E061E00E94552B0E945C2A6093A4014C
:101A10007093A5018093A6019093A701FF91EF9188
:101A2000BF91AF919F918F917F916F915F914F91F6
:101A30003F912F911F910F91FF90EF900F900FBE4C
:101A40000F901F9018958AE061E00E94162B84E0A9
:101A500061E00E94162B8AEA91E062E00E94411642
:101A60008AEA91E0609127010E94DC1487E061E03E
:101A70000E94162B87E061E00E94552B86ED91E0D5
:101A800064E00E94681A882329F4109270010E9471
:101A90007D1603C081E0809370010E945C2A6093F0
:101AA000A4017093A5018093A6019093A7010E94C1
:101AB0005C0B89E396E040E855E260E070E00E944C
:101AC000272CF894109280001092810082EC9FEFF6
:101AD0009093A9018093A80190938500809384003E
:101AE0008091810082608093810080916F0081608D
:101AF00080936F0078940895FC01758364837187E7
:101B000060875783468353874287158A15861486D4
:101B10001786168621E0248B8FEF9FEF938B828BA5
:101B2000918B808B268B08952F923F924F925F92DC
:101B30006F927F928F929F92AF92BF92CF92DF92DD
:101B4000EF92FF920F931F93DF93CF93CDB7DEB742
:101B500028970FB6F894DEBF0FBECDBF98878F834E
:101B60001B012A017901580121E030E02E193F09BB
:101B70003E832D83C701880F991FAA27BB27A81B67
:101B8000B90BBA83A983AF81B885ED91FC91119708
:101B9000A701440D551D0480F581E02DCD0198016C
:101BA0000995AF81B885ED91FC911197A2014E196D
:101BB0005F090480F581E02DCD01B10198010995FF
:101BC000AF81B885ED91FC911197B701620D731D3E
:101BD0000480F581E02DCD01A20198010995AF8126
:101BE000B885ED91FC911197B1016E197F090480C0
:101BF000F581E02DCD01A201980109953701E1E0C1
:101C0000F0E0FC83EB83882499249EC02D813E81E3
:101C100037FD0CC008946108710889819A81029689
:101C20009A838983280F391F3E832D830894811C52
:101C3000911CAB81BC811296BC83AB83ED81FE818C
:101C4000EA0FFB1FFE83ED836401C20CD31C8301EA
:101C5000040D151DAF81B885ED91FC91119704809D
:101C6000F581E02DCD01B601A8019501099571011D
:101C7000E818F908AF81B885ED91FC9111970480BF
:101C8000F581E02DCD01B701A801950109958201EB
:101C900006191709AF81B885ED91FC911197048061
:101CA000F581E02DCD01B601A80195010995AF811F
:101CB000B885ED91FC9111970480F581E02DCD015F
:101CC000B701A801950109956301C20CD31C8401D9
:101CD000040D151DAF81B885ED91FC91119704801D
:101CE000F581E02DCD01B601A8019501099571019D
:101CF000E618F708AF81B885ED91FC911197048043
:101D0000F581E02DCD01B701A8019501099582016A
:101D100008191909AF81B885ED91FC9111970480DC
:101D2000F581E02DCD01B601A80195010995AF819E
:101D3000B885ED91FC9111970480F581E02DCD01DE
:101D4000B701A80195010995861497040CF45ECF9C
:101D500028960FB6F894DEBF0FBECDBFCF91DF91AE
:101D60001F910F91FF90EF90DF90CF90BF90AF90B9
:101D70009F908F907F906F905F904F903F902F90AB
:101D800008952F923F924F925F926F927F928F921F
:101D90009F92AF92BF92CF92DF92EF92FF920F93FA
:101DA0001F93DF93CF93CDB7DEB72E970FB6F8947E
:101DB000DEBF0FBECDBF9E878D871B015E834D8327
:101DC000A701260171E0C72ED12CC21AD30AC9017E
:101DD000880F991F66277727681B790B7A83698399
:101DE0006D807E8008946108710883E0882E912CB4
:101DF0008E0C9F1C790181E090E09C838B83AA2448
:101E0000BB2410E0D801A170B070B887AF83FA018D
:101E10003196FA87E987B801627070707C876B87AA
:101E200077C0D7FC0AC00894E108F10889819A813B
:101E300002969A838983C80ED91E0894A11CB11CEE
:101E4000AB81BC811296BC83AB83EF81F885EF2B0D
:101E500041F1AD85BE85ED91FC911197B501620D03
:101E6000731D4D815E814E195F099701220F331F4B
:101E700089859A85280F391F0284F385E02DCD01CD
:101E800082010995AD85BE85ED91FC911197B70151
:101E9000620D731D0284F385E02DCD01A301940131
:101EA0000995EB85FC85EF2B41F1AD85BE85ED9164
:101EB000FC911197B1016A197B094D815E814E1920
:101EC0005F099701220F331F89859A85280F391FD3
:101ED0000284F385E02DCD0182010995AD85BE8593
:101EE000ED91FC911197B1016E197F090284F38580
:101EF000E02DCD01A30194010995EB81FC81CE0E6B
:101F0000DF1E08946108710862E070E0860E971E7B
:101F1000AE14BF040CF485CF2E960FB6F894DEBF36
:101F20000FBECDBFCF91DF911F910F91FF90EF902A
:101F3000DF90CF90BF90AF909F908F907F906F90E9
:101F40005F904F903F902F9008956F927F928F9265
:101F50009F92AF92BF92CF92DF92EF92FF920F9338
:101F60001F937C014B013A0159016801DC01ED919D
:101F7000FC91421B530B220F331F2F5F3F4F0284F4
:101F8000F385E02D0995C701B401A301950103E094
:101F9000EE24FF240E94C10E1F910F91FF90EF903D
:101FA000DF90CF90BF90AF909F908F907F906F9079
:101FB00008952F923F924F925F926F927F928F92ED
:101FC0009F92AF92BF92CF92DF92EF92FF920F93C8
:101FD0001F93DF93CF9300D000D0CDB7DEB73C0185
:101FE0007C836B836A015901FA82E98222243324BB
:101FF0009801241B350B37FF03C0309521953F4FC7
:10200000C5014B815C81841B950B97FF03C09095A4
:1020100081959F4F821793075CF481E0282E312C25
:10202000C601CB80DC809C838B83C80185015C0169
:102030008B819C81A816B90644F4C501AB80BC8095
:102040009C838B83C80186016C012501AB81BC8117
:102050004A1A5B0A7801EC18FD08F7FE04C0F094F8
:10206000E194F108F394C016D10624F088248A94F0
:10207000982C03C0B1E08B2E912CC20162E070E07D
:102080000E944B2E8B0125C0D301ED91FC912114B0
:10209000310441F00480F581E02DC301B6014B818C
:1020A0005C8107C00480F581E02DC3016B817C81D8
:1020B000A60129813A8109950E191F0917FF04C04D
:1020C000C80CD91C040D151DEB81FC813196FC83D5
:1020D000EB834B815C81A416B506B4F60F900F908C
:1020E0000F900F90CF91DF911F910F91FF90EF9084
:1020F000DF90CF90BF90AF909F908F907F906F9028
:102100005F904F903F902F9008954F925F926F9203
:102110007F928F929F92AF92BF92CF92DF92EF9277
:10212000FF920F931F936C015B014A013901280153
:10213000DC01ED91FC910484F585E02D8701099582
:10214000D601ED91FC91A40141505040440D551D24
:102150000484F585E02DC601B50193010995D601EA
:10216000ED91FC910284F385E02DC601B501A40137
:1021700092010995D601ED91FC910894A108B1084E
:10218000A60CB71C0284F385E02DC601B501A4019D
:10219000920109951F910F91FF90EF90DF90CF90E2
:1021A000BF90AF909F908F907F906F905F904F9077
:1021B00008952F923F924F925F926F927F928F92EB
:1021C0009F92AF92BF92CF92DF92EF92FF920F93C6
:1021D0001F93DF93CF93CDB7DEB72F970FB6F89449
:1021E000DEBF0FBECDBF5C015E834D8318870F83BA
:1021F000FA86E986CB86DC0118968D919C91199719
:10220000681779070CF0A4C01A968D919C911B97C2
:10221000481759070CF09CC0EC2DF0E0FF87EE87C3
:10222000CF01880F991F880F991F8E0F9F1F860F50
:10223000971F181619060CF08BC0CF01A3E0880F6A
:10224000991FAA95E1F7840F951F181619060CF02F
:102250007FC085E0289FA00111245A8349832B0168
:102260001B011C825C81553011F480E005C0E981BE
:10227000FA81E859FF4F84912C863D866D807E80DF
:1022800043011B82C82EDD2480FF1CC0D501ED91C7
:10229000FC91BB85B13049F40480F581E02DC50186
:1022A000B201A3012F81388522C00088F189E02D79
:1022B000C5016C857D85A4012E853F858901EF8050
:1022C000F88423C0E985FA852F813885E217F30762
:1022D000E9F0D501ED91FC91BB85B13051F404805A
:1022E000F581E02DC501B201A30129853A85099543
:1022F0000DC00088F189E02DC5016C857D85A401A4
:102300002E853F858901E984FA840995EB81EF5F89
:10231000EB832E853F85820E931E0894611C711CF1
:10232000E83021F0D594C7948C2DACCF3C813F5F31
:102330003C834E855F85240E351E0894411C511C3C
:1023400089819A8101969A838983363009F08ACFF0
:102350002F960FB6F894DEBF0FBECDBFCF91DF91A1
:102360001F910F91FF90EF90DF90CF90BF90AF90B3
:102370009F908F907F906F905F904F903F902F90A5
:102380000895CF92EF92FF920F931F93CF93DF9315
:10239000EC01262F6A3061F42C8930E003E0220F33
:1023A000331F0A95E1F78E859F85820F931F37C0F3
:1023B0006D30C9F16C857D854E855F8508891989E9
:1023C000EA88FB88CC880E94D9102C8986E0289F57
:1023D000B00111248C859D85680F791F7D876C87DE
:1023E0008E89882301F1422F50E08AEF9FEF9C01F4
:1023F000429FC001439F900D529F900D112428854C
:102400003985820F931F861797076CF413E0440FEA
:10241000551F1A95E1F78E859F85840F951F9F871D
:102420008E871D861C8681E090E0DF91CF911F9101
:102430000F91FF90EF90CF900895FC01758764870E
:10244000578746870895FC01662309F461E0648B91
:102450000895FC01718B608B538B428B0895FC01B6
:10246000668B0895FC01808591850895FC01828525
:1024700093850895FC011382128283E391E0918396
:10248000808361A342A323A381E0808F15A214A2BD
:102490000895DC0158968C915897882329F06EBDD9
:1024A0000DB407FEFDCF089530E840E050E070E045
:1024B000832F90E0862397235996ED91FC915A97AC
:1024C00096962C919697892B21F08081822B808380
:1024D00004C080812095282320835B96ED91FC9198
:1024E0005C97808197969C919797892B80835B96C8
:1024F000ED91FC915C97908197968C919797809540
:102500008923808336954F5F5F4F4830510581F6B0
:1025100008950F931F938C01DC015F96ED91FC9160
:102520009097908199968C91999780958923808333
:102530005D96ED91FC915E97908198968C91809537
:1025400089238083C8010E944912D8015D96ED91CC
:10255000FC915E97808198969C91892B80831F9136
:102560000F9108950F931F938C01DC015F96ED91FD
:10257000FC919097808199969C919997892B808363
:102580005D96ED91FC915E97908198968C918095E7
:1025900089238083C8010E944912D8015D96ED917C
:1025A000FC915E97808198969C91892B80831F91E6
:1025B0000F910895CF92DF92EF92FF920F931F93A6
:1025C0007C01162FC42ED22E6AE20E948912C70106
:1025D00060E00E94B212F70162A5610FC7010E947C
:1025E000B212C70160E00E94B212F70162A56D0D40
:1025F000C7010E94B212C7016BE20E948912C70193
:1026000060E00E94B212F70163A56C0DC7010E9441
:10261000B212C70160E00E94B212F70163A5600F19
:10262000C7010E94B212C7016CE20E9489121F9179
:102630000F91FF90EF90DF90CF900895FF920F934E
:102640001F938C01F62E672FDC015F96ED91FC91B4
:102650009097808199969C919997892B80835D961C
:10266000ED91FC915E97908198968C91809589234D
:102670008083C8010E944912C8016F2D0E9449122F
:10268000D8015D96ED91FC915E97808198969C9122
:10269000892B80831F910F91FF900895FF920F93D4
:1026A0001F93CF93DF93EC01F22E132F77FD2EC0F3
:1026B00088859985681779074CF557FD27C08A8565
:1026C0009B854817590714F5262F2F5F042F0F5F9E
:1026D000CE010E94DA12EF8DF8A1808199A5892B95
:1026E0008083ED8DFE8D908188A5809589238083E0
:1026F000CE01612F0E944912CE016F2D0E94491216
:10270000ED8DFE8D808198A5892B8083DF91CF91FF
:102710001F910F91FF900895DF92EF92FF920F9318
:102720001F93CF93DF93EC01FB017901D02E8885B5
:10273000998568177907D4F52A853B854217530791
:10274000ACF5C701840F951F281739071CF47901D0
:10275000E41AF50A042F01500E0DCE016E2F2E2F14
:102760000E94DA12EF8DF8A1808199A5892B8083D0
:10277000ED8DFE8D908188A580958923808308C08A
:10278000CE01612F0E944912CE016D2D0E94491287
:102790000894E108F1088FEFE8168FEFF80681F74B
:1027A000ED8DFE8D808198A5892B8083DF91CF915F
:1027B0001F910F91FF90EF90DF900895DF92EF92BD
:1027C000FF920F931F93CF93DF93EC01FA017901EE
:1027D000D02E2885398562177307D4F58A859B85A5
:1027E00048175907ACF5C701860F971F28173907F7
:1027F0001CF47901E61AF70A262F21502E0DCE017E
:102800004E2F0E2F0E94DA12EF8DF8A1808199A52C
:10281000892B8083ED8DFE8D908188A580958923FD
:10282000808308C0CE01612F0E944912CE016D2D18
:102830000E9449120894E108F1088FEFE8168FEF23
:10284000F80681F7ED8DFE8D808198A5892B808318
:10285000DF91CF911F910F91FF90EF90DF9008953E
:10286000EF92FF920F931F93FC017B01A081B18136
:10287000208531850285138550960D90BC91A02D41
:1028800060E070E040E050E0FD0109951F910F917C
:10289000FF90EF900895AF92BF92CF92DF92EF92A8
:1028A000FF920F931F93CF93DF936C015901E801BF
:1028B000DC0118962D913C911997621773070CF063
:1028C00057C01A96ED91FC911B974E175F070CF0BD
:1028D0004FC0C501860F971F281739071CF45901EF
:1028E000A61AB70ACE01840F951FE817F9071CF442
:1028F000EF01C41BD50B262F21502A0D042F0150A8
:102900000C0FC6010E94DA12D6015F96ED91FC9180
:102910009097808199969C919997892B80835D9659
:10292000ED91FC915E97908198968C91809589238A
:1029300080838E010EC0C6016F2D0E944912C60110
:102940006E2D0E94491221971C161D06A4F30150FA
:1029500010401016110614F4E501F6CFD6015D966D
:10296000ED91FC915E97808198969C91892B808354
:10297000DF91CF911F910F91FF90EF90DF90CF905B
:10298000BF90AF90089550E04C7F507033E0440FFB
:10299000551F3A95E1F730E093E0359527959A95E4
:1029A000E1F7422B532B70E0687F7070762F66271B
:1029B000462B572BCA0108951F93CF93DF93EC0149
:1029C000162F66E30E94891213701D8B113081F05F
:1029D000113028F01230A9F01330B1F523C08F89DF
:1029E000823019F4CE0160EC14C0CE0168EC11C045
:1029F0008F89823019F4CE0160EA1CC0CE0168EAEA
:102A000019C08F89823019F4CE0160E002C0CE0176
:102A100068E00E94B21280E890E09987888780EA97
:102A200090E010C08F89823019F4CE0160E602C0B8
:102A3000CE0168E60E94B21280EA90E0998788870A
:102A400080E890E09B878A87DF91CF911F9108955E
:102A5000662311F460E201C061E20E9489120895C8
:102A6000AF92BF92CF92DF92EF92FF920F931F939C
:102A7000CF93DF935C01FB01EB012196D49031C031
:102A80008E010F5F1F4FFE016491C5010E948912E4
:102A900078010894E11CF11CF801C4900C2D0F770B
:102AA000E701102F08C0FE012196E491C5016E2FA9
:102AB0000E94B21211501123B1F7E701C00FD11DCE
:102AC000C7FE0EC0FE018491682F70E06F3F710554
:102AD00011F464EF71E0219680E090E00E94822A78
:102AE000DA94DD2069F6DF91CF911F910F91FF906D
:102AF000EF90DF90CF90BF90AF9008950F931F930A
:102B0000CF93DF93EC018B0160E870E040EA50E086
:102B10000E947C0D1BA61AA68AA161E00E94162BBA
:102B200089A161E00E94162BE9A12E2F30E0F90166
:102B3000E858F94FE491F0E0EE0FFF1FEC59F94F20
:102B4000859194919E8F8D8F2457394FF9018491EF
:102B500088A7EAA12E2F30E0F901E858F94FE49157
:102B6000F0E0EE0FFF1FEC59F94F8591949198A377
:102B70008F8F2457394FF901849189A7888D882335
:102B800061F00E948E1680E00E947D1681E00E9416
:102B90006F1680E00E9478163DC08DA161E00E9412
:102BA000162B8CA161E00E94162BEDA18E2F90E0D8
:102BB000FC01E858F94FE491F0E0EE0FFF1FEC59EB
:102BC000F94FA591B491BC8FAB8F8457994FFC01FD
:102BD00044914FA3ECA12E2F30E0F901E858F94FB2
:102BE000E491F0E0EE0FFF1FEC59F94F85919491BD
:102BF0009A8F898F2457394FF90184918EA38C9134
:102C0000409548234C93E98DFA8D90818EA1809553
:102C100089238083ED8DFE8D908188A58095892301
:102C200080838BA1882309F161E00E94162B8BA180
:102C300061E00E94552B64EF71E080E090E00E941B
:102C4000822A8BA160E00E94552B64EF71E080E046
:102C500090E00E94822A8BA161E00E94552B64EFD4
:102C600071E080E090E00E94822A0115110521F0B8
:102C7000CE01B8010E943015DF91CF911F910F91C5
:102C800008951F93CF93DF93EC01162F63E675E051
:102C90000E947E15112351F4CE016EE975E00E9469
:102CA000301582E08AA781E08BA705C0CE016BEAD0
:102CB00075E00E943015CE0168EB75E00E9430157A
:102CC000123041F4CE0166E30E948912CE0160EC1D
:102CD0000E94B2121F8BDF91CF911F91089588231C
:102CE00019F48CB5806202C08CB58F7D8CBD0895BF
:102CF0009CB5937F982B9CBD08952CB5382F3370CD
:102D00002C7F322B3CBD2DB590E095958795959500
:102D1000879581702E7F822B8DBD08958DE061E0B7
:102D20000E94162B8BE061E00E94162B8AE061E086
:102D30000E94162B8DE060E00E94552B8BE060E036
:102D40000E94552B8AE061E00E94552B8CB5806172
:102D50008CBD8CB580648CBD0895FC0113821282F9
:102D600088EE93E0A0E0B0E084839583A683B783E8
:102D70008BE491E091838083128E118E14860895E6
:102D8000FC018BE491E0918380830895DF93CF93DE
:102D90000F92CDB7DEB7FC016983A081B181129695
:102DA0002D913C911397BE016F5F7F4F41E050E042
:102DB000F90109950F90CF91DF910895DC015996A3
:102DC000ED91FC915A97309719F420E030E018C04B
:102DD000238934894589568982859385A485B5855B
:102DE000281B390B4A0B5B0B2030B0E83B07B0E0E7
:102DF0004B07B0E05B0720F02FEF3FE740E050E0EB
:102E0000C9010895DC015996ED91FC915A973097CC
:102E100029F42FEF3FEF4FEF5FEF04C0228533859A
:102E200044855585B901CA010895DC015996ED9193
:102E3000FC915A97309711F480E0089585818111B3
:102E400081E00895CF93DF93EC01898D9A8D0097EF
:102E500041F00E94F11E898D9A8D0E9431041A8ED4
:102E6000198EDF91CF910895FC01818D928D00978D
:102E700011F480E008950E94E11D0895FC01818D08
:102E8000928D009711F00E94A71E0895FC01818D7C
:102E9000928D009719F420E030E003C00E94C81F13
:102EA0009C01C9010895DF93CF930F92CDB7DEB790
:102EB000FC01818D928D009749F0BE016F5F7F4FBD
:102EC00041E050E00E94C81F019719F02FEF3FEF3B
:102ED00003C08981282F30E0C9010F90CF91DF9185
:102EE0000895EF92FF920F931F93DF93CF930F926A
:102EF000CDB7DEB77C01DC0159968D919C915A9734
:102F0000009719F400E010E01FC0BE016F5F7F4F13
:102F100041E050E00E94C81F019719F00FEF1FEF2A
:102F200013C08981082F10E0D7015996ED91FC91CB
:102F30005A9742855385648575854150504060405D
:102F40007040CF010E94E11DC8010F90CF91DF9129
:102F50001F910F91FF90EF900895CF93DF93EC01B5
:102F6000E98DFA8D309761F013821282CF010E94B1
:102F70000D229C01E98DFA8D82819381892B31F09C
:102F800081E090E09B838A8320E030E0C901DF91FB
:102F9000CF910895EF92FF920F931F93CF93DF93FA
:102FA000EC01F62EE72E8A011B821A8288EE93E04E
:102FB000A0E0B0E08C839D83AE83BF838BE491E07F
:102FC000998388838DE190E00E9487039A8F898F8F
:102FD000009791F0DC018F2D9E2D9C01F9018DE170
:102FE00001900D928150E1F7CE010C96B8014CE0B2
:102FF00050E00E94A104188EDF91CF911F910F9194
:10300000FF90EF9008951092DB011092DC01109276
:10301000DF011092E10182E090E0A0E0B0E0809357
:10302000E2019093E301A093E401B093E5011092D3
:10303000F90110920302109202028BE591E0909345
:103040000102809300021092050208952F923F9290
:103050004F925F926F927F928F929F92AF92BF92A8
:10306000CF92DF92EF92FF920F931F93DF93CF9354
:10307000CDB7DEB7C754D0400FB6F894DEBF0FBE51
:10308000CDBF582E492EFB013A01190184A595A503
:10309000998B888B2BE531E03F872E8786A58A8B1D
:1030A00087A58B8B80A991A9A2A9B3A98C8B9D8B95
:1030B000AE8BBF8B84A995A9A6A9B7A9888F998F34
:1030C000AA8FBB8F80AD91ADA2ADB3AD8C8F9D8F1C
:1030D000AE8FBF8F84AD88A3FD9681919191A19110
:1030E000B19189A39AA3ABA3BCA381919191A19122
:1030F000B1918DA39EA3AFA3B8A7808191819AA718
:1031000089A71EA61DA63CA72BA718AA7A018E0187
:10311000025F1F4F3BE2A32EB12CAC0EBD1E4E0131
:103120000894811C911C35C0D7018C918F3221F4F9
:103130000894E11CF11C2DC0422F4E194D3008F0AF
:103140004CE0C42EDD24C401B701A6010E94A104F5
:10315000F401EC0DFD1D1082C5010E94F11EC50198
:10316000B801A40121E00E943A24882351F4E52DFE
:10317000F42D138212828BE591E091838083158276
:1031800066C0EC0CFD1CC8010E94F11EC50158016F
:103190008C01C7016FE270E00E9496049C010097C9
:1031A00019F6E618F708F101F182E082E52DF42D19
:1031B000D80112968D919C911397938382838BE50E
:1031C00091E09183808314968C9114978483159653
:1031D0008C911597858316962D913D914D915C911B
:1031E000199726833783408751871A962D913D91F1
:1031F0004D915C911D9722873387448755871E9692
:103200002D913D914D915C91519726873787408B49
:10321000518B52968C915297828B53962D913D9162
:103220004D915C915697238B348B458B568B5796DB
:103230002D913D914D915C915A97278B308F418F05
:10324000528F5B968D919C915C97948F838F852D87
:10325000942DC95BDF4F0FB6F894DEBF0FBECDBF14
:10326000CF91DF911F910F91FF90EF90DF90CF9062
:10327000BF90AF909F908F907F906F905F904F9096
:103280003F902F9008959F92AF92BF92CF92DF927E
:10329000EF92FF920F931F93DF93CF93CDB7DEB7DB
:1032A000C657D0400FB6F894DEBF0FBECDBFC82EB4
:1032B000992E8A01D22E43E0A42EB12CAC0EBD1E55
:1032C000C501A8019E012F5F3F4F0E942618E9808B
:1032D000FA80E00EF11EF70180814BE551E0288570
:1032E000882309F03FC08D819E819BA38AA359A3A7
:1032F00048A38F818CA32DA389859A85AB85BC8536
:103300008EA39FA3A8A7B9A78D859E85AF85B889F1
:103310008AA79BA7ACA7BDA789899A89AB89BC89D5
:103320008EA79FA7A8ABB9AB8D898AAB8E899F89E1
:10333000A88DB98D8BAB9CABADABBEAB8A8D9B8D95
:10334000AC8DBD8D8FAB98AFA9AFBAAF8E8D9F8D71
:103350009CAF8BAF8C2D992DBE01605E7F4F4EE1EF
:1033600051E09FC0FE01FF96118210825EAF4DAF0B
:10337000FE01EE5BFF4F10822223A9F02250CE0106
:10338000CD96223048F460E072E0A7012D2D0E9416
:103390003A24882381F407C0B501A7012D2D0E948E
:1033A0003A24882329F48C2D992D0E94AD167BC0D8
:1033B000C5010E94F11EF6E0DF2259F0FE01E05B3C
:1033C000FF4F4081518162817381CE01CD960E9471
:1033D000E11D9E01265A3F4FFE01FF96808191819B
:1033E000F901938382838BE591E091838083FE01D1
:1033F000EF5BFF4F8081F9018483FE01EE5BFF4F9D
:103400008081F9018583FE01ED5BFF4F8081918111
:10341000A281B381F90186839783A087B187FE01DA
:10342000E95BFF4F80819181A281B381F90182879D
:103430009387A487B587FE01E55BFF4F808191816B
:10344000A281B381F90186879787A08BB18BFE019A
:10345000E15BFF4F8081F901828BFE01E05BFF4F52
:1034600080819181A281B381F901838B948BA58B9B
:10347000B68BFE01EC5AFF4F80819181A281B3810E
:10348000F901878B908FA18FB28FFE01E85AFF4F11
:1034900080819181F901948F838F8C2D992DB901B1
:1034A000A7010E94CA178C2D992DCA58DF4F0FB65D
:1034B000F894DEBF0FBECDBFCF91DF911F910F916A
:1034C000FF90EF90DF90CF90BF90AF909F900895C6
:1034D0000F931F93CF93DF93EC01462F61E00E947F
:1034E000CD1C8823D1F08E01045F1F4FC801BE019F
:1034F00041E00E94DB25882339F4C801BE0140E089
:103500000E94DB25882349F0CE018A96B8010E94EB
:103510002721882319F081E001C080E0DF91CF915D
:103520001F910F910895FC01673020F086E185839B
:1035300080E00895262F30E060FD02C0663019F467
:103540008DB58E7F02C08DB581608DBD8CB58C7FB1
:103550008CBD4CB522FD02C090E001C092E03695D2
:103560002795822F8170842B892B8CBD81E0089553
:10357000FF920F931F93CF93DF938B010E944E2AEC
:10358000EB01FF24FA94FEBC0DB407FEFDCF8EB50F
:103590008F3F11F481E008C00E944E2A6C1B7D0B06
:1035A0006017710780F380E0DF91CF911F910F9139
:1035B000FF900895FC01848160E00E94552B0895DE
:1035C000FC01848161E00E94552B0895DC016EBDF1
:1035D000FA0120E030E00DB407FEFDCF80818EBD02
:1035E0000DB407FEFDCF81818EBD2E5F3F4F329619
:1035F00082E02030380779F70DB407FEFDCF8FEF5A
:103600008EBD0DB407FEFDCF8FEF8EBD0DB407FE4E
:10361000FDCF8FEF8EBD0DB407FEFDCF8EB51A9690
:103620008C931A978F71853011F481E0089581E1B0
:1036300015968C931597CD010E94E01A80E00895AD
:10364000FF920F931F93CF93DF93EC010E944E2ABA
:103650008B01FF24FA9409C00E944E2A601B710B53
:103660006D52714010F08FE00DC0FEBC0DB407FE2E
:10367000FDCF8EB58A878F3F79F38E3F11F481E0BD
:1036800006C08DE08D83CE010E94E01A80E0DF91BC
:10369000CF911F910F91FF900895CF93DF93EC018D
:1036A0008E818823D1F08FEF8EBD2F8138854FEF2B
:1036B00004C00DB407FEFDCF4EBD2F5F3F4FC901C3
:1036C000019781509240A8F338872F830DB407FEED
:1036D000FDCFCE010E94E01A1E82DF91CF910895A6
:1036E000DF92EF92FF920F931F93CF93DF93EC0142
:1036F000D62E79018A010E944D1BCE010E94DA1A52
:10370000CE016CE271E00E94B81A8D2D80648EBDEE
:103710000DB407FEFDCF28E130E0D801C701022E2D
:1037200004C0B695A795979587950A94D2F78EBD54
:103730000DB407FEFDCF285030408FEF283F3807EB
:1037400061F7DD2011F485E906C088E0D81611F490
:1037500087E801C08FEF8EBD0DB407FEFDCF90E06E
:103760002FEF2EBD0DB407FEFDCF8EB587FF02C033
:103770009150B9F78A87DF91CF911F910F91FF90F8
:10378000EF90DF900895CF92DF92EF92FF920F9328
:103790001F93CF93DF93EC017A018B0169014115EF
:1037A00051056105710511F482E137C08B858330C5
:1037B00039F029E0EE0CFF1C001F111F2A95D1F7EC
:1037C000CE0168E1A80197010E94701B882311F0C7
:1037D00084E023C0CE016EEFA6010E94E61A882382
:1037E000E9F0CE0168E572E00E94B81A882311F46E
:1037F00085E113C0CE016DE020E030E040E050E014
:103800000E94701B882341F48FEF8EBD0DB407FE1C
:10381000FDCF8EB5882379F084E18D83CE010E949F
:10382000E01A80E0DF91CF911F910F91FF90EF9010
:10383000DF90CF900895CE010E94E01A81E0F2CF90
:103840008F929F92AF92BF92CF92DF92EF92FF92B0
:103850000F931F93CF93DF93EC015A016B01490142
:103860000115110509F47BC0C801820F931F815017
:10387000924008F06FC08E81882371F08881998111
:10388000AA81BB81481759076A077B0729F48F81F2
:1038900098858816990618F5A882B982CA82DB82B3
:1038A0008B85833039F069E0AA0CBB1CCC1CDD1C75
:1038B0006A95D1F7CE0161E1A60195010E94701BC6
:1038C000882319F083E08D8345C0CE010E94201B20
:1038D000882309F43FC018861F8281E08E838FEF12
:1038E0008EBD8F8198852FEF05C00DB407FEFDCFEB
:1038F0002EBD019688159905C0F398878F83D8014E
:10390000119720E030E09FEF0BC00DB407FEFDCF14
:103910008EB5F701E20FF31F80839EBD2F5F3F4FEF
:103920002A173B0790F30DB407FEFDCF8EB5AE0D01
:10393000BF1D8C932F813885200F311F38872F832F
:103940008985882319F02050324048F0CE010E942A
:103950004D1B05C0CE010E94E01A80E001C081E04D
:10396000DF91CF911F910F91FF90EF90DF90CF905B
:10397000BF90AF909F908F900895EF92FF920F931A
:103980001F93790120E030E000E012E00E94201C4B
:103990001F910F91FF90EF900895BF92CF92DF9209
:1039A000EF92FF920F931F93CF93DF93EC01B62E0C
:1039B0001B8619861E821D824C830E944E2A6B0133
:1039C0008C8161E00E94162BCE010E94E01A8CE0EF
:1039D00060E00E94162B8BE061E00E94162B8DE0C8
:1039E00061E00E94162B8AE061E00E94162B8AE0BB
:1039F00061E00E94552B83E58CBD8DB58E7F8DBD1A
:103A000080E09FEF9EBD0DB407FEFDCF8F5F8A3033
:103A1000C9F7CE010E94DA1A09C00E944E2A6C1919
:103A20007D09615D774010F081E05EC0CE0160E00D
:103A300020E030E040E050E00E94701B182F8A87A1
:103A4000813059F7CE0168E02AEA31E040E050E0E9
:103A50000E94701B82FF02C01B8711C080E02FEF05
:103A60002EBD0DB407FEFDCF9EB58F5F8430C1F72C
:103A70009A879A3A11F082E037C082E08B878B8573
:103A8000823021F0EE24FF2487010FC0E12CF12CBD
:103A9000012DF0E41F2F09C00E944E2A6C197D09E8
:103AA000615D774010F088E01FC0CE0167E320E041
:103AB00030E040E050E00E94701BCE0169E2A801B6
:103AC00097010E94701B8A87882331F78B8582308B
:103AD00031F5CE016AE320E030E040E050E00E94A2
:103AE000701B882339F086E08D83CE010E94E01A96
:103AF00080E01CC08FEF8EBD0DB407FEFDCF8EB5EC
:103B0000807C803C11F483E08B8780E09FEF9EBD3A
:103B10000DB407FEFDCF2EB58F5F8330C1F7CE0108
:103B20000E94E01ACE016B2D0E94931ADF91CF9173
:103B30001F910F91FF90EF90DF90CF90BF9008956D
:103B4000CF93DF93EC01DB0180E090E020E2FD0108
:103B5000E80FF91F208301968B309105C1F757E0DC
:103B600040E021C02E3219F08AE496E007C05A30B6
:103B700019F15AE048E017C03217F1F0FC01019644
:103B800034913323C9F75417B8F02132A8F02F37F6
:103B900098F4822F81568A3108F42052FD01E40FF7
:103BA000F11D20834F5F29912223E1F690E08C9153
:103BB000803219F091E001C090E0892FDF91CF9120
:103BC00008956F927F928F929F92AF92BF92CF9201
:103BD000DF92EF92FF920F931F93CF93DF93EC014D
:103BE0007A018B012D81222309F480C08B899C8965
:103BF000AD89BE8984179507A607B70708F476C074
:103C000085C0E114F1040105110549F41E821F82EB
:103C1000188619861A861B861C861D8665C02A850D
:103C20003B854C855D85EB8DFC8D858590E0099607
:103C3000215030404040504039014A01082E04C014
:103C400096948794779467940A94D2F72F5F3F4FA6
:103C50004F4F5F4F0894E108F1080109110957011E
:103C6000680104C0D694C794B794A7948A95D2F7F4
:103C70000894E11CF11C011D111DA614B704C80411
:103C8000D90428F0211531054105510549F48F89E2
:103C9000988DA98DBA8D8E839F83A887B98716C00A
:103CA000A618B708C808D90811C04E815F81688579
:103CB00079858B8D9C8D94010E94BC270894A10866
:103CC000B108C108D108882331F410C086E0882EDD
:103CD000912C8C0E9D1EA114B104C104D10429F7AE
:103CE000EA86FB860C871D8781E001C080E0DF91BA
:103CF000CF911F910F91FF90EF90DF90CF90BF90E9
:103D0000AF909F908F907F906F900895223009F030
:103D100078CFE6CFCF93DF93EC01462F6E857F857A
:103D2000888999890E94A025882319F420E030E031
:103D30000AC08A89282F30E095E0220F331F9A9518
:103D4000E1F72F5D3D4FC901DF91CF9108950F93AA
:103D50001F93CF93DF938C01FC0185818823D9F1D8
:103D6000848187FF35C0C80161E00E948A1EEC0192
:103D7000009789F1F8018581823040F48389948924
:103D8000A589B6898C8F9D8FAE8FBF8FF8018789EB
:103D9000908D9B8F8A8F8789908DA18DB28DCD015B
:103DA000AA27BB279D8B8C8BE0911F02F0912002EC
:103DB000309751F0BE016A5E7F4FCE01489609955B
:103DC000888D998D9B8B8A8BF80184818F77848372
:103DD0000E94412501C080E0DF91CF911F910F919A
:103DE0000895CF93DF93EC010E94A71E882311F062
:103DF0001D8281E0DF91CF9108956F927F928F9223
:103E00009F92AF92BF92CF92DF92EF92FF920F9369
:103E10001F93DF93CF9300D000D0CDB7DEB77C01E6
:103E20005A016B01DC0115968C911597813009F0D0
:103E30008FC014968C9181FF8BC09EC00097A10506
:103E4000B10511F481E085C0F70162847384848434
:103E50009584C701B601A5010E94E11D882309F4DC
:103E600077C0D7015B968D919C915C97A114B104AA
:103E7000C104D10489F457964D915D916D917C9167
:103E80005A970E942F28882309F462C0F701178AE5
:103E9000108E118E128E3DC0D70116964D915D91F8
:103EA0006D917C9119979E012F5F3F4F0E94BC2717
:103EB000882309F44DC0D7015B96ED91FC915C9786
:103EC00049815A816B817C818789803129F088EF13
:103ED0009FEFAFEFBFE004C088EF9FEFA0E0B0E03E
:103EE000481759076A077B07A0F4CF010E942F28C3
:103EF000882371F1F7014681578160857185838D33
:103F0000948D0FEF1FEF2FEF3FE00E9420278823B3
:103F1000F9F0D7015396AD92BD92CD92DC925697AF
:103F200014968C911497806814968C93C7010E9404
:103F3000A71E882369F0B601A5016A147B048C04CE
:103F40009D0410F4B401A301C7010E94E11D01C04A
:103F500080E00F900F900F900F90CF91DF911F9105
:103F60000F91FF90EF90DF90CF90BF90AF909F9018
:103F70008F907F906F900895F70183899489A58928
:103F8000B68984179507A607B70708F057CFE0CF83
:103F90002F923F924F925F926F927F928F929F9259
:103FA000AF92BF92CF92DF92EF92FF920F931F9347
:103FB000CF93DF93EC012A018D81882309F4C6C0D9
:103FC0008C8180FFC3C0D8C025014E185F084B010B
:103FD00076E0272E312C2C0E3D1E3201B1C02A85F1
:103FE0003B854C855D856FEFA62E61E0B62EA22243
:103FF000B3228D8179018A0199E016950795F7948E
:10400000E7949A95D1F7EB8DFC8D823049F4428D7F
:10401000538D648D758D4E0D5F1D601F711F3FC0E8
:10402000D480DA94DE20A114B104D9F4DD20C9F4DF
:10403000211531054105510549F48F89988DA98DC8
:10404000BA8D8E839F83A887B9870BC04E815F810D
:1040500068857985CF0191010E94BC27882309F4E6
:1040600075C0EB8DFC8D4E815F81688579854250EE
:10407000504060407040058404C0440F551F661FC7
:10408000771F0A94D2F786859785A089B189480F52
:10409000591F6A1F7B1F4D0D511D611D711D80E051
:1040A00092E08A199B0963018615970508F46C0153
:1040B0008C8186FD06C080E0C81682E0D80609F033
:1040C00073C080912B0190912C01A0912D01B09192
:1040D0002E01481759076A077B0709F465C08091CC
:1040E0002104909122049501860174010E94201CF4
:1040F000882361F18C0C9D1C12C095012F5D3D4FF2
:10410000A9014C0D5D1DD401F90102C081918D936F
:10411000E417F507D9F7E21BF30B8E0E9F1E9601ED
:1041200040E050E08A859B85AC85BD85820F931F5A
:10413000A41FB51F8A879B87AC87BD876C187D0835
:104140006114710409F04BCFA20102C04FEF5FEF81
:10415000CA01DF91CF911F910F91FF90EF90DF90F7
:10416000CF90BF90AF909F908F907F906F905F9017
:104170004F903F902F900895AB88BC88CD88DE8803
:10418000EA84FB840C851D859A0140E050E0D6014D
:10419000C5018E199F09A00BB10B82179307A407C5
:1041A000B50708F411CF13CFCB01BA0140E00E944C
:1041B000A025882309F0A1CFC9CFCF92DF92EF923B
:1041C000FF920F931F93DF93CF930F92CDB7DEB77C
:1041D0006C01FC018581823070F0E284F3840485F7
:1041E0001585C601BE016F5F7F4F41E050E00E9420
:1041F000C81F019769F020E030E0C9010F90CF910E
:10420000DF911F910F91FF90EF90DF90CF90089575
:10421000F60182859385A485B5854F96A11DB11DB4
:1042200082879387A487B587F5E016950795F7945D
:10423000E794FA95D1F78E2D8F70282F30E0E5E0C6
:10424000220F331FEA95E1F72F5D3D4FD6CF0F9335
:104250001F93CF93DF93EC018B018D81882309F0AD
:1042600041C0FB0187898031B1F482E08D831F8AD0
:10427000188E198E1A8E808D918DA0E0B0E045E0E9
:10428000880F991FAA1FBB1F4A95D1F78B8B9C8B58
:10429000AD8BBE8B15C0803229F583E08D83FB0189
:1042A000428D538D648D758D4F8B588F698F7A8FAA
:1042B0009E012D5E3F4FC8010E948828882391F0FF
:1042C0001C8F0B8F81E08C831E821F8218861986BB
:1042D0001A861B861C861D861E861F86188A198ACA
:1042E0001A8A01C080E0DF91CF911F910F9108954C
:1042F0001F93CF93DF93EC01142FE62FF0E075E0CE
:10430000EE0FFF1F7A95E1F7EF5DFD4F8385817119
:1043100021F0842F827409F054C06A8B80912B01A4
:1043200090912C01A0912D01B0912E018E879F8735
:10433000A88BB98B84899589A0E0B0E0BC01552792
:104340004427828D938DA0E0B0E0482B592B6A2B37
:104350007B2B4F8B588F698F7A8F838590E0887184
:104360009070009751F4848D958DA68DB78D8B8BB1
:104370009C8BAD8BBE8B81E00CC0409711F59E01EC
:104380002D5E3F4F8B8D9C8D0E9488288823C9F01D
:1043900084E08D83812F8F708C831E821F8218860C
:1043A00019861A861B861C861D8616FD02C081E0B2
:1043B00009C0CE0140E050E060E070E00E94FD1EC8
:1043C00001C080E0DF91CF911F910895CF93DF93DB
:1043D000EC019C012A5F3F4F8B8D9C8D41E050E0AA
:1043E00060E070E00E94F7288823A1F08F89988D03
:1043F000A98DBA8D0097A105B10559F48E819F81D1
:10440000A885B9858F8B988FA98FBA8F8C8180688A
:104410008C8381E0DF91CF9108952F923F924F924C
:104420005F927F928F929F92AF92BF92CF92DF92D4
:10443000EF92FF920F931F93DF93CF9300D000D0A2
:1044400000D0CDB7DEB76C01162F072F5E834D83EA
:10445000DC0115968C911597813009F070C1149686
:104460008C9181FF6CC18EC1F601438954896589A5
:10447000768982859385A485B58584179507A607D7
:10448000B70731F0C6010E94E11D882309F457C126
:10449000812F902F9C0129012D803E8017C1D601CC
:1044A0005B96ED91FC915C97DA01C90119E0B69534
:1044B000A795979587951A95D1F774807A94782265
:1044C0007FEF872E71E0972E82229322772009F0CA
:1044D0004EC08114910409F04AC0D60116964D9140
:1044E0005D916D917C91199741155105610571059B
:1044F00081F457968D919D910D90BC91A02D0097C0
:10450000A105B10549F1F60186839783A087B1879C
:104510002EC0CF019E012F5F3F4F0E94BC278823F2
:1045200009F414C129813A814B815C81D6015B96E3
:10453000ED91FC915C978789803129F088EF9FEF9E
:10454000AFEFBFE004C088EF9FEFA0E0B0E0281716
:1045500039074A075B0730F0C6010E94E62188232D
:1045600031F4EDC0F601268337834087518780E020
:1045700092E08819990951018215930508F45C01AC
:10458000D6015B96ED91FC915C971696ED90FD90AF
:104590000D911C9119978EEF9FEFAFEFBFEFE80ED3
:1045A000F91E0A1F1B1F058404C0EE0CFF1C001F10
:1045B000111F0A94D2F786859785A089B189E80EE4
:1045C000F91E0A1F1B1FE70CF11C011D111D90E0B5
:1045D000A91692E0B90651F580912B0190912C011A
:1045E000A0912D01B0912E018E159F05A007B10756
:1045F00061F48FEF9FEFAFEFBFEF80932B019093AC
:104600002C01A0932D01B0932E0180912104909153
:104610002204B801A70192010E94C31B882309F458
:104620008EC0A0E0B2E04A0E5B1E3EC08114910431
:1046300009F5F6012285338544855585838994895A
:10464000A589B689281739074A075B0798F00E94A1
:104650004125882309F473C0E0922B01F0922C01CC
:1046600000932D0110932E0180912304816080938B
:10467000230408C0C801B70141E00E94A025882397
:1046800009F45DC094012F5D3D4FA9014A0D5B1DEA
:10469000D201F90102C08D918193E417F507D9F792
:1046A000E21BF30B4E0E5F1E2A183B08950140E0FB
:1046B00050E0F60182859385A485B585820F931F0E
:1046C000A41FB51F82879387A487B587D6011A9642
:1046D0002D913D914D915C911D972114310409F06C
:1046E000DECE53968D919D910D90BC91A02D821799
:1046F0009307A407B50748F4F601238B348B458B49
:10470000568B84818068848311C080911F029091B0
:104710002002892B59F08D819E81892B39F0D60199
:1047200014968C911497806814968C93F60184816A
:1047300083FF0EC0C6010E94A71E882349F481E0B2
:1047400090E0D60113969C938E9312971E821D8241
:104750008D819E8126960FB6F894DEBF0FBECDBF29
:10476000CF91DF911F910F91FF90EF90DF90CF904D
:10477000BF90AF909F908F907F905F904F903F90B1
:104780002F90089582FD70CE83CEDF93CF930F924A
:10479000CDB7DEB76983BE016F5F7F4F41E050E068
:1047A0000E940D220F90CF91DF910895DF92EF923A
:1047B000FF920F931F93CF93DF93EC010E94E621AA
:1047C000882309F44EC0EB8DFC8DEE80FF800885B8
:1047D00019858EEF9FEFAFEFBFEFE80EF91E0A1FAE
:1047E0001B1F058404C0EE0CFF1C001F111F0A9440
:1047F000D2F786859785A089B189E80EF91E0A1F30
:104800001B1FD4800894E108F108010911090BC0AD
:10481000C801B7016D0D711D811D911D0E947C2580
:104820008823F9F0DA94DD2099F7EB8DFC8D20E0F8
:1048300032E040E050E0058404C0220F331F441FE3
:10484000551F0A94D2F78B899C89AD89BE89820F46
:10485000931FA41FB51F8B8B9C8BAD8BBE8B81E0F0
:1048600001C080E0DF91CF911F910F91FF90EF90F9
:10487000DF9008956F927F928F929F92AF92BF9236
:10488000CF92DF92EF92FF920F931F93DF93CF931C
:10489000CDB7DEB72B970FB6F894DEBF0FBECDBFF6
:1048A0005C016B01822EDC0115968C91882309F046
:1048B000D2C0CA018E010F5F1F4FB8010E94A01D18
:1048C000882309F4C8C0F601838D948DD5015C96C8
:1048D0009C938E935B971682178210861186D60161
:1048E0001A961D921D921D921C921D9799243801B3
:1048F00041C0C6010E94DD20FC01009709F4ABC055
:1049000085E016950795F794E7948A95D1F71E2DC3
:104910001F708081882311F0853ED1F4992091F495
:10492000D50152961C93529720912B0130912C0166
:1049300040912D0150912E011E962D933D934D9344
:104940005C9351978081882399F49924939421C092
:10495000C301BF014BE050E00E948904009751F46D
:10496000882D8073803309F476C0C501612F6FC034
:1049700099249394F601E284F38404851585838950
:104980009489A589B689E816F9060A071B0708F471
:10499000B0CF882D8271823109F05DC0992041F03D
:1049A000C50161E00E948A1E8C01009789F453C002
:1049B000D60115968C91823009F44DC0C6010E9433
:1049C000D623882309F447C0F501128A01E212E0D8
:1049D00080E2D8011D928A95E9F7D801FE0131964F
:1049E0008BE001900D928150E1F7E0911F02F09170
:1049F0002002309739F0B801625F7F4FC8014096BE
:104A0000099509C081E298E2F801918B808B80E0E2
:104A100098E097878687D80150968D919C91519701
:104A200053969C938E93529759969C938E93589736
:104A30001E968D919C911F9757969C938E93569797
:104A40000E944125882339F0C501F5016289482D6E
:104A50000E94782101C080E02B960FB6F894DEBF4B
:104A60000FBECDBFCF91DF911F910F91FF90EF90BF
:104A7000DF90CF90BF90AF909F908F907F906F907E
:104A8000089580912304882399F140912B0150913E
:104A90002C0160912D0170912E0180912104909143
:104AA000220421E232E00E94C31B882319F14091C5
:104AB0002404509125046091260470912704411527
:104AC00051056105710591F08091210490912204B6
:104AD00021E232E00E94C31B882361F0109224047B
:104AE0001092250410922604109227041092230499
:104AF00081E0089580E00895EF92FF920F931F9355
:104B00007B018C010E9441258823A9F0E1E2F2E0BB
:104B1000119284E0E132F807D9F7E0922B01F0928C
:104B20002C0100932D0110932E01809123048160AC
:104B30008093230481E01F910F91FF90EF900895DF
:104B4000DF92EF92FF920F931F937B018C01D42E83
:104B500080912B0190912C01A0912D01B0912E01FB
:104B60008E159F05A007B107C1F00E94412588233B
:104B7000D9F08091210490912204B801A70121E28B
:104B800032E00E94BD1C882379F0E0922B01F09264
:104B90002C0100932D0110932E01809123048D2967
:104BA0008093230481E001C080E01F910F91FF906A
:104BB000EF90DF9008958F929F92AF92BF92CF9225
:104BC000DF92EF92FF920F931F93CF93DF936C01CD
:104BD000142F7093220460932104442321F4882429
:104BE0009924540140C0453008F01CC160E070E0D9
:104BF00080E090E040E00E94A025882309F412C1E3
:104C0000C12FD0E02197FE0174E0EE0FFF1F7A95CF
:104C1000E1F7EF5DFD4FE254FE4F8081EE5BF14026
:104C200090E08F779070892B09F0FCC0E653FE4F1F
:104C300080819181A281B38184369105A105B1055E
:104C400008F4F0C064E0CC0FDD1F6A95E1F7C951AC
:104C5000DC4F88809980AA80BB8081149104A104D4
:104C6000B10409F4DFC0C501B40140E00E94A025F1
:104C7000882309F4D7C080912C0290912D02805096
:104C8000924009F0CFC020913102222309F4CAC01A
:104C900080912F0290913002892B09F4C3C080913A
:104CA0002E02882309F4BEC0F601228B80912E02C9
:104CB0008483158661E070E007C04F5FF601458789
:104CC0004150483008F0AEC0F6014585848190E03F
:104CD0009B01042E02C0220F331F0A94E2F78217B1
:104CE000930759F720913702309138022115310589
:104CF00019F040E050E008C0209145023091460292
:104D00004091470250914802F6012583368347833C
:104D10005087E0902F02F090300200E010E0E80CA5
:104D2000F91C0A1D1B1DE38AF48A058B168B8091E2
:104D3000320290913302918F808F6091310270E046
:104D400080E090E00E942C2E6E0D7F1D801F911F31
:104D5000F601628F738F848F958F2091320230918C
:104D6000330255E0220F331F5A95E1F721503E4F91
:104D7000232F3327269540E050E0260F371F481F8A
:104D8000591F26873787408B518B80913402909131
:104D90003502009719F0A0E0B0E008C08091410210
:104DA00090914202A0914302B091440285017401A6
:104DB000E21AF30A040B150BA8019701280F391FFB
:104DC0004A1F5B1FF601058404C056954795379529
:104DD00027950A94D2F72187328743875487253F46
:104DE000FFE03F07F0E04F07F0E05F0710F48CE0D2
:104DF00006C0255F3F4F4040504028F480E1F60157
:104E0000878B81E010C080914D0290914E02A0915D
:104E10004F02B0915002F601828F938FA48FB58F0D
:104E200080E2EECF80E0DF91CF911F910F91FF9054
:104E3000EF90DF90CF90BF90AF909F908F900895AC
:104E40004F925F926F927F928F929F92AF92BF929A
:104E5000CF92DF92EF92FF920F931F93CF93DF9346
:104E6000EC016A017B0128013901423051056105DD
:104E7000710508F46FC089859A85AB85BC8501965C
:104E8000A11DB11D84179507A607B70708F462C0D6
:104E90002B893C894D895E898F89803129F4992736
:104EA0008F2D7E2D6D2D09C0C701B60117E0969597
:104EB0008795779567951A95D1F74B015C01820E1E
:104EC000931EA41EB51E80912B0190912C01A091E0
:104ED0002D01B0912E0188169906AA06BB0639F05D
:104EE000C501B40140E00E94A025882399F18F8973
:104EF000803149F4F601F070EE0FFF1FEF5DFD4FBA
:104F0000518240820DC0F601EF77F070EE0FFF1F67
:104F1000EE0FFF1FEF5DFD4F408251826282738270
:104F2000809123048160809323048A89823080F0F9
:104F30008D819E81AF81B885880E991EAA1EBB1EE9
:104F40008092240490922504A0922604B092270413
:104F500081E001C080E0DF91CF911F910F91FF9020
:104F6000EF90DF90CF90BF90AF909F908F907F9009
:104F70006F905F904F900895CF92DF92EF92FF92E3
:104F80000F931F93CF93DF93EC017A018B0169019B
:104F900089859A85AB85BC850196A11DB11D8417B5
:104FA0009507A607B70708F450C02B893C894D899F
:104FB0005E898F89803129F49927812F702F6F2D79
:104FC00009C0C801B701E7E0969587957795679581
:104FD000EA95D1F7260F371F481F591F80912B01E3
:104FE00090912C01A0912D01B0912E012817390725
:104FF0004A075B0739F0CA01B90140E00E94A025C9
:10500000882319F18F89803159F4F701F070EE0F80
:10501000FF1FEF5DFD4F80819181A0E0B0E00EC0E9
:10502000F701EF77F070EE0FFF1FEE0FFF1FEF5D40
:10503000FD4F80819181A281B381BF70F601808391
:105040009183A283B38381E001C080E0DF91CF919F
:105050001F910F91FF90EF90DF90CF900895AF9246
:10506000BF92CF92DF92EF92FF920F931F93DF9345
:10507000CF9300D000D0CDB7DEB76C017A018B01A1
:1050800082E090E0A0E0B0E0F60180839183A2830B
:10509000B3835E010894A11CB11CC601B801A7012D
:1050A00095010E94BC27882319F1C601B801A70108
:1050B00000E010E020E030E00E9420278823C1F0CB
:1050C000E980FA800B811C81F6018789803129F003
:1050D00088EF9FEFAFEFBFE004C088EF9FEFA0E045
:1050E000B0E0E816F9060A071B07B8F281E001C034
:1050F00080E00F900F900F900F90CF91DF911F9154
:105100000F91FF90EF90DF90CF90BF90AF900895F8
:105110004F925F926F927F928F929F92AF92BF92C7
:10512000CF92DF92EF92FF920F931F93DF93CF9373
:1051300000D000D0CDB7DEB76C0149835A836B83B2
:105140007C833901EE24FF2487012E010894411C41
:10515000511C812CA2E09A2EA12CB12C49815A819C
:105160006B817C81C60192010E94BC27882351F18A
:10517000D501C401F601058404C0880F991FAA1F38
:10518000BB1F0A94D2F7E80EF91E0A1F1B1F2981C4
:105190003A814B815C818789803129F088EF9FEFCC
:1051A000AFEFBFE004C088EF9FEFA0E0B0E02817AA
:1051B00039074A075B0790F2F301E082F18202832C
:1051C000138381E00F900F900F900F90CF91DF919C
:1051D0001F910F91FF90EF90DF90CF90BF90AF9015
:1051E0009F908F907F906F905F904F9008952F9237
:1051F0003F924F925F926F927F928F929F92AF9267
:10520000BF92CF92DF92EF92FF920F931F93DF93A3
:10521000CF93CDB7DEB72F970FB6F894DEBF0FBE92
:10522000CDBF1C014A875B876C877D873F872E87B0
:10523000D9010D911D912D913C910115110521056B
:10524000310549F0480159010894811C911CA11CA9
:10525000B11C198610C0FC0180809180A280B380AF
:1052600019868A859B85AC85BD850197A105B10509
:1052700011F491E09987D10119968D919D910D902E
:10528000BC91A02D0196A11DB11D8D839E83AF837E
:10529000B887750164014424552432018E010F5FE3
:1052A0001F4FF10181859285A385B4854816590663
:1052B0006A067B0608F090C08D819E81AF81B8851B
:1052C0008C159D05AE05BF0550F482E0882E912C0B
:1052D000A12CB12CB2E0CB2ED12CE12CF12CC101B0
:1052E000B701A60198010E94BC27882309F474C065
:1052F00089819A81AB81BC81A70196012F5F3F4FC5
:105300004F4F5F4F0097A105B10519F049015A01B0
:105310000DC0281939094A095B098A859B85AC8526
:10532000BD85281739074A075B0759F00894411CC7
:10533000511C611C711C0894C11CD11CE11CF11C86
:10534000B0CFC101A601B7010FEF1FEF2FEF3FE074
:105350000E942027882399F43FC026013701089432
:105360004108510861087108C101B301A201970108
:1053700086010E942027882379F1730162018C1431
:105380009D04AE04BF0448F3AE85BF854D915D9189
:105390006D917C91411551056105710539F0C1018F
:1053A000950184010E9420278823B1F0EE85FF85B6
:1053B00080829182A282B382F985FF2359F00894FA
:1053C000811C911CA11CB11CD1018D929D92AD92AA
:1053D000BC92139781E001C080E02F960FB6F8943D
:1053E000DEBF0FBECDBFCF91DF911F910F91FF9018
:1053F000EF90DF90CF90BF90AF909F908F907F9075
:105400006F905F904F903F902F9008951F920F9252
:105410000FB60F9211242F933F938F939F93AF93C7
:10542000BF9380912C0490912D04A0912E04B091F3
:105430002F04309130040196A11DB11D232F2D5F43
:105440002D3720F02D570196A11DB11D209330045A
:1054500080932C0490932D04A0932E04B0932F04DA
:105460008091280490912904A0912A04B0912B04E2
:105470000196A11DB11D8093280490932904A09347
:105480002A04B0932B04BF91AF919F918F913F91CC
:105490002F910F900FBE0F901F9018958FB7F89413
:1054A00020912C0430912D0440912E0450912F0412
:1054B0008FBFB901CA0108959FB7F89420912804BD
:1054C0003091290440912A0450912B0486B5A89B61
:1054D00006C08F3F21F02F5F3F4F4F4F5F4F9FBF61
:1054E000542F432F322F2227280F311D411D511DCC
:1054F00082E0220F331F441F551F8A95D1F7B9014F
:10550000CA0108959B01AC017FB7F89480912804EB
:1055100090912904A0912A04B0912B0466B5A89B10
:1055200005C06F3F19F00196A11DB11D7FBFBA2FB5
:10553000A92F982F8827860F911DA11DB11D62E00C
:10554000880F991FAA1FBB1F6A95D1F7BC012DC0F8
:10555000FFB7F8948091280490912904A0912A041F
:10556000B0912B04E6B5A89B05C0EF3F19F001965A
:10557000A11DB11DFFBFBA2FA92F982F88278E0F0D
:10558000911DA11DB11DE2E0880F991FAA1FBB1F2D
:10559000EA95D1F7861B970B885E9340C8F221509D
:1055A00030404040504068517C4F21153105410545
:1055B000510571F60895789484B5826084BD84B5F0
:1055C000816084BD85B5826085BD85B5816085BDFE
:1055D000EEE6F0E0808181608083E1E8F0E0108217
:1055E000808182608083808181608083E0E8F0E058
:1055F000808181608083E1EBF0E080818460808342
:10560000E0EBF0E0808181608083EAE7F0E0808178
:1056100084608083808182608083808181608083D8
:105620008081806880831092C1000895CF93DF93BA
:10563000482F50E0CA018457994FFC0134914858D3
:10564000594FFA018491882369F190E0880F991FDE
:10565000FC01E65AF94FA591B491FC01EC59F94FC0
:10566000C591D491662351F42FB7F8948C91932F60
:10567000909589238C93888189230BC0623061F4D3
:105680002FB7F8948C91932F909589238C938881D0
:10569000832B88832FBF06C09FB7F8948C91832BF0
:1056A0008C939FBFDF91CF910895482F50E0CA019E
:1056B0008056994FFC012491CA018457994FFC01EF
:1056C00094914858594FFA013491332309F440C05A
:1056D000222351F1233071F0243028F42130A1F03D
:1056E000223011F514C02630B1F02730C1F024303B
:1056F000D9F404C0809180008F7703C0809180002E
:105700008F7D8093800010C084B58F7702C084B5F0
:105710008F7D84BD09C08091B0008F7703C08091D8
:10572000B0008F7D8093B000E32FF0E0EE0FFF1FFD
:10573000EC59F94FA591B4912FB7F894662321F451
:105740008C919095892302C08C91892B8C932FBFCB
:1057500008951F920F920FB60F9211242F933F932B
:105760004F938F939F93EF93FF934091C6002091A7
:105770003105309132052F5F3F4F307080913305F6
:10578000909134052817390759F0E0913105F091CF
:105790003205EF5CFB4F4083309332052093310597
:1057A000FF91EF919F918F914F913F912F910F908A
:1057B0000FBE0F901F901895E0914506F091460698
:1057C000E050FF4F819191912081318180509F4F16
:1057D000821711F00E94840B08951F920F920FB64A
:1057E0000F9211242F933F938F939F93EF93FF93E7
:1057F0002091350630913606809137069091380613
:105800002817390731F48091C1008F7D8093C10042
:1058100013C0E0913706F0913806EB5CFA4F208117
:1058200080913706909138060196907090933806D3
:10583000809337062093C600FF91EF919F918F913F
:105840003F912F910F900FBE0F901F901895AF9220
:10585000BF92DF92EF92FF920F931F93CF93DF934C
:10586000EC017A018B01DD24403081EE580780E0A5
:10587000680780E0780711F0DD24D39491E0A92E29
:10588000B12CEC89FD89DD2069F0C5010E8C02C0C8
:10589000880F991F0A94E2F7808360E079E08DE336
:1058A00090E005C0108260E874E88EE190E0A80105
:1058B00097010E945E2E2150304040405040569546
:1058C00047953795279580E12030380720F0DD2077
:1058D00011F0DD24D6CFE889F9893083EA89FB8984
:1058E0002083EE89FF89408121E030E0C9010A8CE4
:1058F00002C0880F991F0A94E2F7482B4083EE8973
:10590000FF894081C9010B8C02C0880F991F0A943E
:10591000E2F7482B4083EE89FF894081C9010C8C56
:1059200002C0880F991F0A94E2F7482B4083EE8942
:10593000FF8980810D8C02C0220F331F0A94E2F789
:10594000209528232083DF91CF911F910F91FF9005
:10595000EF90DF90BF90AF900895DC011C96ED9121
:10596000FC911D97E050FF4F2191319180819181F1
:1059700020503F4F281B390B3070C9010895DC01BE
:105980001C96ED91FC911D97E050FF4F20813181D5
:10599000E050F140DF01AE5FBE4F8D919C911197B9
:1059A0002817390719F42FEF3FEF07C08D919C910D
:1059B000E80FF91F8081282F30E0C9010895DC012C
:1059C0001C96ED91FC911D97E050FF4F2081318195
:1059D000E050F140DF01AE5FBE4F8D919C91119779
:1059E0002817390719F42FEF3FEF0FC08D919C91C5
:1059F0001197E80FF91F20818D919C9111970196C5
:105A0000907011969C938E9330E0C9010895FC012B
:105A100086859785DC01A050BF4FFC01EE5FFE4FED
:105A20002D913C9111978081918128173907C1F7F9
:105A30000895CF93DF93EC01EE85FF85E050FF4F93
:105A400020813181E050F1402F5F3F4F3070DF0106
:105A5000AE5FBE4F8D919C91119728173907D1F3F6
:105A6000E050FF4F80819181E050F140E80FF91F35
:105A70006083EE85FF85E050FF4F31832083EE8900
:105A8000FF89208181E090E00D8C02C0880F991F72
:105A90000A94E2F7282B208381E090E0DF91CF91F8
:105AA000089510923C0610923B0688EE93E0A0E029
:105AB000B0E080933D0690933E06A0933F06B093DE
:105AC000400683E691E090933A068093390681E39D
:105AD00094E0909346068093450685E395E0909385
